:020000040800F2
:1000000038050020D50000086708000865080008CA
:1000100000000000000000000000000000000000E0
:10002000000000000000000000000000B10900080E
:1000300000000000000000004F0900084D0A000801
:100040000501000805010008050100080501000878
:100050000501000805010008050100080501000868
:100060000501000805010008050100080501000858
:100070000501000805010008050100080501000848
:100080000501000800000000000000000501000854
:100090000000000005010008050100080501000836
:1000A0000000000005010008050100080501000826
:1000B00005010008000000002D07000805010008E8
:1000C0000348854600F052F800480047A10C00089C
:1000D000380500200C4880F308880C480168090E98
:1000E0000B4A914205D10B480B4901600B480C4962
:1000F00001600C4880470C480047FEE7FEE7FEE73A
:10010000FEE7FEE7FEE700003805002004000000DF
:100110001F00000018100240010000000000014014
:1001200000000000510A0008C100000830B50B466D
:10013000014600202022012409E00D46D5409D42C1
:1001400005D31D469540491B254695404019154647
:10015000521E002DF1DC30BD0321001D401E03782E
:1001600012021A43491EF9D510467047064C012564
:10017000064E05E0E36807CC2B430C3C984710344F
:10018000B442F7D3FFF7A0FF000F0008200F0008CC
:10019000F0B5012676028D1B082310240422B142FB
:1001A00021D010DC20292FD007DC012927D00429F9
:1001B00028D0082900D1C460F0BD402926D0FF39DD
:1001C0000129F9D10FE03F267602AF1B0021B5428D
:1001D00008D00ADCFF3DFF3DAD1E04D001239B0289
:1001E0009D42E9D181614260F0BD0121C903791AC4
:1001F0000ED0012212049142F6D14460F0BD0549AF
:100200008160F0BDC360F0BD0361F0BD0461F0BD6D
:100210004360F0BD01010100F0B501218BB048043D
:1002200000F096FB0121084600F0B6FB2F4801685C
:100230001022114301600927FF0604220B213846D2
:1002400000F0FAFA04220C21384600F0F5FA0320F7
:10025000C0020390022168460174032646740024FC
:1002600084740125C57403A9384600F0ADFA1E2137
:10027000684601754475857505A800F0F5FA0121F9
:10028000480600F071FB1A4F384600F037F8684610
:1002900000F0B8F968468471C47102948470C47027
:1002A000072101710621417106806946384600F038
:1002B000FDF808A88470C4700571684604834483FF
:1002C0008483C483048408A8457106A800F02CF830
:1002D00008490948012222C0447004708570022137
:1002E000384600F0DBF80BB0F0BD00000000014024
:1002F00000640040210300002400002010B501210B
:100300004C06204600F03CFB0021204600F038FB64
:1003100010BD2022002903D00169114301617047FB
:10032000C1681143C160704770B50546817A0120EC
:1003300006462B4C8E40216801432160E069B043A2
:10034000E061287B002812D1E068B043E060E888D3
:10035000698800040843A97AC90009190864A888B3
:10036000298800040843A97AC90009194864287B30
:10037000012814D1E0683043E0602846FFF7ECFE26
:100380001021C841A97AC90009190864281DFFF77E
:10039000E3FE1021C841A97AC90009194864E87A26
:1003A0000028606805D0304360602889002802D0AA
:1003B00004E0B043F8E76069B04360612889012830
:1003C00002D1606930436061687B012802D1E06935
:1003D0003043E061206840084000206070BD0000AC
:1003E0000066004010B50246536900200B423DD024
:1003F000FF2401340B1BA14243D012DC082936D064
:1004000007DC01292BD002292CD004292ED1D06859
:1004100035E010292DD020292ED0402926D1106971
:100420001BE07F242402191BA34232D00DDCFF3BCA
:100430005B1E29D0FF3BFF3B9B1E28D00121890278
:100440008B4213D1906970210EE00123DB03C91A9E
:1004500014D05B00994209D15068102104E09068E3
:100460000D4901E0D06805E000F0A8F910BDD068A2
:10047000F3E710690321F7E7106900E050680821ED
:10048000F2E790690121EFE790690221ECE79069BA
:1004900000E050680421E7E701010100002A4269F9
:1004A00001D00A4300E08A434261704710B50268F8
:1004B00000230224A2430260026801242243026056
:1004C000314A00E05B1C4468E40701D19342F9D152
:1004D0004368DB073ED08C798023012C04683BD035
:1004E0009C430460CC794023012C046836D09C43A3
:1004F00004600C7A2023012C046831D09C430460F2
:100500004C7A1023012C04682CD09C4304608C7A14
:100510000823012C046827D09C430460CC7A042370
:10052000012C046822D09C4304608B78CC789B0714
:10053000240623430C79240423434C790988240599
:100540002343491E0B43C361016849084900016008
:1005500000210EE0002010BD1C43C2E71C43C7E78A
:100560001C43CCE71C43D1E71C43D6E71C43DBE725
:10057000491C4368DB0701D09142F9D14068C007AC
:10058000E8D1012010BD0000FFFFFF000B0130B5D6
:100590001B18FF3381331C6B04252C4014721C6B19
:1005A00029D0E40854601C6B02252C4054725C6B0B
:1005B0002407240F94725C6B240AD4749C6BD4724D
:1005C0009C6B240A14739C6B240C54739C6B240E38
:1005D0009473DC6BD473DC6B240A1474DC6B240C12
:1005E0005474DB6B1B0E93742022002906D0016922
:1005F0001143016130BD640D1460D4E7C16811433B
:10060000C16030BD00218171C1710172417281727E
:10061000C1728170C17003210171022141710121F8
:100620000180704730B50246936800205B0108D412
:100630009068000101D5012003E09068C0002ED52C
:10064000022003019A18FF3281321368DB07DB0FA7
:1006500013600B7A002B24D014684D681C434B7A2E
:10066000ED002B431C4314608B7A1B071B0F8B720E
:1006700053681B091B01536053688C7A23435360F2
:10068000CB68CC7A1B02234393600B69C97B1B02A6
:100690000B43D360116801231943116030BD04205E
:1006A00030BD13684C7A23430C88640523431360E0
:1006B000DAE700000022002904D0012905D0022930
:1006C00006D112E08268134801E0826812480240B5
:1006D0001249501A8A4218D00ADC002A17D0104852
:1006E000101811D0022810D10DE082680D48EEE7F5
:1006F000FF38FF38801E06D00B49401804D0012176
:100700004904884201D1012070470020704702202F
:100710007047000003000004000300080001000807
:10072000FFFFFFFB000003100003FFF770B586B06A
:1007300000240094694601940C728C721A4ECC7499
:1007400002213046FFF74EFE184D012825D16A469A
:1007500000213046FFF71AFF0098012819D168469A
:10076000007A002815D1694607E00819C27A28687E
:100770000270401C641CE4B22860887AA042F4D85D
:100780000B48897A02788918017000213046FFF7FA
:10079000C0FD02213046FFF7FBFC064828600649F1
:1007A0000120087006B070BD0064004020000020E9
:1007B0001C0000203800002000000020024600201D
:1007C0000A4200D001207047F0B5002201242346E0
:1007D0000D6893401D409D422AD10D79012D01D015
:1007E000022D12D1876855000326AE40B7438760BB
:1007F0004E79AE4085682E43866085889D4385800E
:1008000085888B7993401D438580066855000323B6
:10081000AB409E4306600E790768AE403E430660DB
:10082000C6689E43C660CB79AB40C5682B43C360A6
:10083000521C102ACBD3F0BD4B07DB0E9A40C908DF
:1008400010B589000818016A0F249C40A143016279
:10085000016A1143016210BD002A01D08161704715
:1008600001857047FEE7704730B583780121027833
:10087000002B15D094080E4BA400E41823689207AF
:10088000D50EFF22AA40934342789207120EAA4047
:100890001A4322600078C006C00E8140054804E07B
:1008A000D006C00E814003488030016030BD00009A
:1008B00000E400E000E100E0F0B5054601218BB066
:1008C000480400F045F80121084600F04DF80221E7
:1008D0006846039101740321417400248474012645
:1008E0000927C674FF0603A93846FFF76DFF0222E9
:1008F00001213846FFF7A0FF684604800481448048
:1009000001958472B7076946384600F031F96021D5
:1009100068468182C68204210183048408214184BF
:1009200049018184C4846C0805A93846079400F005
:10093000D5F82146384600F019F90121384600F073
:10094000B7F80121384600F0BDF80BB0F0BD704794
:10095000044A0029516901D0014300E081435161FB
:100960007047000000100240044A0029D16901D0FC
:10097000014300E08143D161704700000010024054
:10098000044A0029116901D0014300E0814311614B
:100990007047000000100240044A0029916901D00C
:1009A000014300E081439161704700000010024064
:1009B000704700001CB50021224801910091026897
:1009C00001231B041A4302605B0005221203046822
:1009D0001C400094019C641C0194009C002C02D1DA
:1009E000019C9442F3D10268920328D50121009121
:1009F000154A1121116041684160416841604168B8
:100A00007F22D203914341604168112212041143B5
:100A100041600168012212061143016001688901E9
:100A2000FCD5416889088900416041680222114370
:100A3000416041680907890F0229FAD11CBD009164
:100A40001CBD000000100240002002407047000062
:100A500010B5144801680122114301604168124A2F
:100A6000114041600168114A114001600168012292
:100A700092049143016041683F2212049143416016
:100A8000C16A09090901C162016BFF225432914315
:100A90000163416B49084900416300218160FFF710
:100AA00089FF10BD001002400CB8FFF8FFFFF6FEF2
:100AB0000029018802D00122114301E049084900C0
:100AC0000180704740300029818803D00122D20381
:100AD000114301E04904490C8180704770B5028CD4
:100AE00010239A430284048C8288038B1A4D2B4076
:100AF0000D782D062D0C1D4320239C438B891B054F
:100B00001E0C4B8826431B051B0C144C3343A04280
:100B100002D0134EB04219D1124E32400E8AB604A2
:100B2000360C3243A04211D18024A343CC89240542
:100B3000240C1C4340239C438B881B051B0C234324
:100B4000094C22404C8AA404240C22438280058351
:100B500089688163038470BDFF8C0000002C014014
:100B600000400140FFFB0000FFF700008163704779
:100B700010B50288144B984206D00124A407A04265
:100B800002D0124CA04203D17024A2434C882243CD
:100B90000F4CA04203D00F4C22400C89224302800C
:100BA0004A68C2620A880285984208D00A4A90427E
:100BB00005D00A4A904202D0094A904201D1897A6E
:100BC00001860121818210BD002C014000040040FB
:100BD00000100040FFFC00000040014000440140C4
:100BE0000048014030B47446641E2578641CAB4252
:100BF00000D21D46635D5B00E31830BC184702E07D
:100C000008C8121F08C1002AFAD170477047002097
:100C100001E001C1121F002AFBD1704701B5104845
:100C20007D2189010068FFF781FA009948430D4949
:100C3000486100228A610869012318430861086934
:100C4000C30701D0C003FAD5086901231B049843E8
:100C5000086108694008400008618A6108BD000019
:100C60000800002000E000E01CB501218804FFF727
:100C70006FFE0220009001206946087100208871F3
:100C800003224A71054CC8712046FFF79DFD0122E1
:100C900002212046FFF7E0FD1CBD000000040048D3
:100CA000FFF7E2FF00F012F9FFF7B6FA5748FFF737
:100CB00003FE64210C072046FFF758FF0121204660
:100CC000FFF700FF524D534F7D26534CF600012095
:100CD000FFF7A4FFA088401C80B2A080012804D1A7
:100CE000002202214D48FFF7B7FDA1880846FF38D2
:100CF000F53804D1012202214848FFF7ADFDA08854
:100D0000B0421ED1022028606860002028726872FC
:100D10000821A9726080012180B22A18401C80B28B
:100D2000D17260800828F7D339493D48FFF77AFC33
:100D3000607061783A48FFF7BDFC0128F9D00020C7
:100D4000A08020780128C2D13878012804D0022858
:100D500013D0032856D120E07878012804D0022847
:100D600005D003284ED105E000F078F84AE000F005
:100D700067F847E000F056F844E07878012804D09E
:100D8000022805D0032808D105E000F091F804E01E
:100D900000F080F801E000F06FF878780300FFF7CA
:100DA00021FF06040A10161D2331012000218007AF
:100DB000FFF77EFE26E001218807FFF779FE642118
:100DC00018E001218807FFF773FEC82112E0012116
:100DD0008807FFF76DFE192149010BE00121880703
:100DE000FFF766FE314605E001218807FFF760FE48
:100DF0007D21890101208007FFF7B8FE01218807C6
:100E0000FFF760FE0020207061E700007F250000F2
:100E100024000020380000200000002000040048CA
:100E20000064004010B50924E40601220821204690
:100E3000FFF712FD002210212046FFF70DFD10BD27
:100E400010B50924E406002208212046FFF704FD1E
:100E5000012210212046FFF7FFFC10BD10B5092428
:100E6000E406002208212046FFF7F6FC00221021AC
:100E70002046FFF7F1FC10BD10B50924E40601225D
:100E800020212046FFF7E8FC002240212046FFF702
:100E9000E3FC10BD10B50924E40600222021204601
:100EA000FFF7DAFC012240212046FFF7D5FC10BDF8
:100EB00010B50924E406002220212046FFF7CCFCCF
:100EC000002240212046FFF7C7FC10BD1CB50121C0
:100ED0004804FFF73DFD7820009001206946087125
:100EE0000020887103224A710924C871E406204653
:100EF000FFF76AFC002278212046FFF7ADFC1CBDFD
:100F0000200F00080000002024000000FE0B000855
:100F1000440F000824000020140500000E0C0008F7
:100F20000000000000000000006CDC020000000077
:100F30000000000001020304060708090000000089
:040F40003800002055
:04000005080000C12E
:00000001FF
